{
  "_format": "hh-sol-artifact-1",
  "contractName": "SourceChainSender",
  "sourceName": "contracts/SourceChainSender.sol",
  "abi": [
    {
      "inputs": [
        {
          "internalType": "address",
          "name": "_router",
          "type": "address"
        },
        {
          "internalType": "address",
          "name": "_link",
          "type": "address"
        },
        {
          "internalType": "address",
          "name": "_crossChainToken",
          "type": "address"
        }
      ],
      "stateMutability": "nonpayable",
      "type": "constructor"
    },
    {
      "inputs": [
        {
          "internalType": "uint256",
          "name": "currentBalance",
          "type": "uint256"
        },
        {
          "internalType": "uint256",
          "name": "calculatedFees",
          "type": "uint256"
        }
      ],
      "name": "NotEnoughBalance",
      "type": "error"
    },
    {
      "inputs": [],
      "name": "ReentrancyGuardReentrantCall",
      "type": "error"
    },
    {
      "inputs": [],
      "name": "SourceChainSender__Insufficient",
      "type": "error"
    },
    {
      "inputs": [],
      "name": "SourceChainSender__InsufficientBalance",
      "type": "error"
    },
    {
      "inputs": [],
      "name": "SourceChainSender__NeedFundToken",
      "type": "error"
    },
    {
      "inputs": [],
      "name": "SourceChainSender__NeedSendMore",
      "type": "error"
    },
    {
      "inputs": [],
      "name": "SourceChainSender__TransferFailed",
      "type": "error"
    },
    {
      "inputs": [],
      "name": "SourceChainSender__WithdrawFailed",
      "type": "error"
    },
    {
      "anonymous": false,
      "inputs": [
        {
          "indexed": true,
          "internalType": "bytes32",
          "name": "messageId",
          "type": "bytes32"
        },
        {
          "indexed": true,
          "internalType": "uint64",
          "name": "destinationChainSelector",
          "type": "uint64"
        },
        {
          "indexed": false,
          "internalType": "address",
          "name": "receiver",
          "type": "address"
        },
        {
          "indexed": false,
          "internalType": "address",
          "name": "feeToken",
          "type": "address"
        },
        {
          "indexed": false,
          "internalType": "uint256",
          "name": "fees",
          "type": "uint256"
        },
        {
          "indexed": false,
          "internalType": "address",
          "name": "to",
          "type": "address"
        },
        {
          "indexed": false,
          "internalType": "uint256",
          "name": "amount",
          "type": "uint256"
        }
      ],
      "name": "MessageSent",
      "type": "event"
    },
    {
      "anonymous": false,
      "inputs": [
        {
          "indexed": true,
          "internalType": "address",
          "name": "owner",
          "type": "address"
        },
        {
          "indexed": true,
          "internalType": "uint256",
          "name": "amount",
          "type": "uint256"
        }
      ],
      "name": "OwnerWithdrawn",
      "type": "event"
    },
    {
      "anonymous": false,
      "inputs": [
        {
          "indexed": true,
          "internalType": "address",
          "name": "from",
          "type": "address"
        },
        {
          "indexed": true,
          "internalType": "address",
          "name": "to",
          "type": "address"
        }
      ],
      "name": "OwnershipTransferRequested",
      "type": "event"
    },
    {
      "anonymous": false,
      "inputs": [
        {
          "indexed": true,
          "internalType": "address",
          "name": "from",
          "type": "address"
        },
        {
          "indexed": true,
          "internalType": "address",
          "name": "to",
          "type": "address"
        }
      ],
      "name": "OwnershipTransferred",
      "type": "event"
    },
    {
      "anonymous": false,
      "inputs": [
        {
          "indexed": true,
          "internalType": "address",
          "name": "sender",
          "type": "address"
        },
        {
          "indexed": true,
          "internalType": "uint256",
          "name": "amount",
          "type": "uint256"
        }
      ],
      "name": "TokenInPut",
      "type": "event"
    },
    {
      "anonymous": false,
      "inputs": [
        {
          "indexed": true,
          "internalType": "address",
          "name": "owner",
          "type": "address"
        },
        {
          "indexed": true,
          "internalType": "uint256",
          "name": "amount",
          "type": "uint256"
        }
      ],
      "name": "Withdrawn",
      "type": "event"
    },
    {
      "inputs": [],
      "name": "acceptOwnership",
      "outputs": [],
      "stateMutability": "nonpayable",
      "type": "function"
    },
    {
      "inputs": [
        {
          "internalType": "uint256",
          "name": "amount",
          "type": "uint256"
        }
      ],
      "name": "fund",
      "outputs": [],
      "stateMutability": "nonpayable",
      "type": "function"
    },
    {
      "inputs": [
        {
          "internalType": "address",
          "name": "funder",
          "type": "address"
        }
      ],
      "name": "getFunderBalance",
      "outputs": [
        {
          "internalType": "uint256",
          "name": "",
          "type": "uint256"
        }
      ],
      "stateMutability": "view",
      "type": "function"
    },
    {
      "inputs": [],
      "name": "getPoolBalance",
      "outputs": [
        {
          "internalType": "uint256",
          "name": "",
          "type": "uint256"
        }
      ],
      "stateMutability": "view",
      "type": "function"
    },
    {
      "inputs": [],
      "name": "getTokenAddress",
      "outputs": [
        {
          "internalType": "address",
          "name": "",
          "type": "address"
        }
      ],
      "stateMutability": "view",
      "type": "function"
    },
    {
      "inputs": [
        {
          "internalType": "uint256",
          "name": "amount",
          "type": "uint256"
        }
      ],
      "name": "onlyOwnerWithdraw",
      "outputs": [],
      "stateMutability": "nonpayable",
      "type": "function"
    },
    {
      "inputs": [],
      "name": "owner",
      "outputs": [
        {
          "internalType": "address",
          "name": "",
          "type": "address"
        }
      ],
      "stateMutability": "view",
      "type": "function"
    },
    {
      "inputs": [
        {
          "internalType": "uint64",
          "name": "destinationChainSelector",
          "type": "uint64"
        },
        {
          "internalType": "address",
          "name": "receiver",
          "type": "address"
        },
        {
          "internalType": "enum SourceChainSender.payFeesIn",
          "name": "feeToken",
          "type": "uint8"
        },
        {
          "internalType": "address",
          "name": "to",
          "type": "address"
        },
        {
          "internalType": "uint256",
          "name": "amount",
          "type": "uint256"
        }
      ],
      "name": "sendMessage",
      "outputs": [
        {
          "internalType": "bytes32",
          "name": "messageId",
          "type": "bytes32"
        }
      ],
      "stateMutability": "nonpayable",
      "type": "function"
    },
    {
      "inputs": [
        {
          "internalType": "address",
          "name": "to",
          "type": "address"
        }
      ],
      "name": "transferOwnership",
      "outputs": [],
      "stateMutability": "nonpayable",
      "type": "function"
    },
    {
      "inputs": [
        {
          "internalType": "uint256",
          "name": "amount",
          "type": "uint256"
        }
      ],
      "name": "withdraw",
      "outputs": [],
      "stateMutability": "nonpayable",
      "type": "function"
    },
    {
      "stateMutability": "payable",
      "type": "receive"
    }
  ],
  "bytecode": "0x60e06040523480156200001157600080fd5b506040516200249f3803806200249f83398181016040528101906200003791906200037c565b338060008073ffffffffffffffffffffffffffffffffffffffff168273ffffffffffffffffffffffffffffffffffffffff1603620000ac576040517f08c379a0000000000000000000000000000000000000000000000000000000008152600401620000a39062000439565b60405180910390fd5b816000806101000a81548173ffffffffffffffffffffffffffffffffffffffff021916908373ffffffffffffffffffffffffffffffffffffffff160217905550600073ffffffffffffffffffffffffffffffffffffffff168173ffffffffffffffffffffffffffffffffffffffff161462000133576200013281620001e360201b60201c565b5b50505060016002819055508273ffffffffffffffffffffffffffffffffffffffff1660808173ffffffffffffffffffffffffffffffffffffffff16815250508173ffffffffffffffffffffffffffffffffffffffff1660a08173ffffffffffffffffffffffffffffffffffffffff16815250508073ffffffffffffffffffffffffffffffffffffffff1660c08173ffffffffffffffffffffffffffffffffffffffff1681525050505050620004cd565b3373ffffffffffffffffffffffffffffffffffffffff168173ffffffffffffffffffffffffffffffffffffffff160362000254576040517f08c379a00000000000000000000000000000000000000000000000000000000081526004016200024b90620004ab565b60405180910390fd5b80600160006101000a81548173ffffffffffffffffffffffffffffffffffffffff021916908373ffffffffffffffffffffffffffffffffffffffff1602179055508073ffffffffffffffffffffffffffffffffffffffff1660008054906101000a900473ffffffffffffffffffffffffffffffffffffffff1673ffffffffffffffffffffffffffffffffffffffff167fed8889f560326eb138920d842192f0eb3dd22b4f139c87a2c57538e05bae127860405160405180910390a350565b600080fd5b600073ffffffffffffffffffffffffffffffffffffffff82169050919050565b6000620003448262000317565b9050919050565b620003568162000337565b81146200036257600080fd5b50565b60008151905062000376816200034b565b92915050565b60008060006060848603121562000398576200039762000312565b5b6000620003a88682870162000365565b9350506020620003bb8682870162000365565b9250506040620003ce8682870162000365565b9150509250925092565b600082825260208201905092915050565b7f43616e6e6f7420736574206f776e657220746f207a65726f0000000000000000600082015250565b600062000421601883620003d8565b91506200042e82620003e9565b602082019050919050565b60006020820190508181036000830152620004548162000412565b9050919050565b7f43616e6e6f74207472616e7366657220746f2073656c66000000000000000000600082015250565b600062000493601783620003d8565b9150620004a0826200045b565b602082019050919050565b60006020820190508181036000830152620004c68162000484565b9050919050565b60805160a05160c051611f47620005586000396000818161025b0152818161028b015281816103b501528181610e3e01528181610f100152818161100e015261113301526000818161070501528181610835015281816108d6015281816109ae0152610c2501526000818161076c015281816109ea01528181610a6d0152610b550152611f476000f3fe6080604052600436106100955760003560e01c806396a37aee1161005957806396a37aee14610174578063abd70aa21461019d578063b8b3d85b146101c8578063ca1d209d14610205578063f2fde38b1461022e5761009c565b806310fe9ae8146100a15780632e1a7d4d146100cc5780635ee195c8146100f557806379ba5097146101325780638da5cb5b146101495761009c565b3661009c57005b600080fd5b3480156100ad57600080fd5b506100b6610257565b6040516100c391906115b6565b60405180910390f35b3480156100d857600080fd5b506100f360048036038101906100ee919061160c565b61027f565b005b34801561010157600080fd5b5061011c600480360381019061011791906116ca565b6104da565b604051610129919061175e565b60405180910390f35b34801561013e57600080fd5b50610147610c6c565b005b34801561015557600080fd5b5061015e610e01565b60405161016b91906115b6565b60405180910390f35b34801561018057600080fd5b5061019b6004803603810190610196919061160c565b610e2a565b005b3480156101a957600080fd5b506101b261100a565b6040516101bf9190611788565b60405180910390f35b3480156101d457600080fd5b506101ef60048036038101906101ea91906117a3565b6110ab565b6040516101fc9190611788565b60405180910390f35b34801561021157600080fd5b5061022c6004803603810190610227919061160c565b6110f4565b005b34801561023a57600080fd5b50610255600480360381019061025091906117a3565b6112a8565b005b60007f0000000000000000000000000000000000000000000000000000000000000000905090565b6102876112bc565b60007f000000000000000000000000000000000000000000000000000000000000000073ffffffffffffffffffffffffffffffffffffffff166370a08231336040518263ffffffff1660e01b81526004016102e291906115b6565b602060405180830381865afa1580156102ff573d6000803e3d6000fd5b505050506040513d601f19601f8201168201806040525081019061032391906117e5565b101561035b576040517fd8d7400500000000000000000000000000000000000000000000000000000000815260040160405180910390fd5b80600360003373ffffffffffffffffffffffffffffffffffffffff1673ffffffffffffffffffffffffffffffffffffffff16815260200190815260200160002060008282546103aa9190611841565b9250508190555060007f000000000000000000000000000000000000000000000000000000000000000073ffffffffffffffffffffffffffffffffffffffff1663a9059cbb33846040518363ffffffff1660e01b815260040161040e929190611875565b6020604051808303816000875af115801561042d573d6000803e3d6000fd5b505050506040513d601f19601f8201168201806040525081019061045191906118d6565b90508061048a576040517fb9bce28400000000000000000000000000000000000000000000000000000000815260040160405180910390fd5b813373ffffffffffffffffffffffffffffffffffffffff167f7084f5476618d8e60b11ef0d7d3f06914655adb8793e28ff7f018d4c76d505d560405160405180910390a3506104d7611300565b50565b600081600360003373ffffffffffffffffffffffffffffffffffffffff1673ffffffffffffffffffffffffffffffffffffffff168152602001908152602001600020541015610555576040517f29f21d3600000000000000000000000000000000000000000000000000000000815260040160405180910390fd5b81600360003373ffffffffffffffffffffffffffffffffffffffff1673ffffffffffffffffffffffffffffffffffffffff16815260200190815260200160002060008282546105a49190611841565b92505081905550600083836040516024016105c0929190611875565b6040516020818303038152906040527f9e281a98000000000000000000000000000000000000000000000000000000007bffffffffffffffffffffffffffffffffffffffffffffffffffffffff19166020820180517bffffffffffffffffffffffffffffffffffffffffffffffffffffffff8381831617835250505050905060006040518060a001604052808860405160200161065d91906115b6565b6040516020818303038152906040528152602001838152602001600067ffffffffffffffff81111561069257610691611903565b5b6040519080825280602002602001820160405280156106cb57816020015b6106b8611545565b8152602001906001900390816106b05790505b5081526020016001808111156106e4576106e3611932565b5b8860018111156106f7576106f6611932565b5b14610703576000610725565b7f00000000000000000000000000000000000000000000000000000000000000005b73ffffffffffffffffffffffffffffffffffffffff168152602001610763604051806040016040528062030d4081526020016000151581525061130a565b815250905060007f000000000000000000000000000000000000000000000000000000000000000073ffffffffffffffffffffffffffffffffffffffff166320487ded8a846040518363ffffffff1660e01b81526004016107c5929190611b87565b602060405180830381865afa1580156107e2573d6000803e3d6000fd5b505050506040513d601f19601f8201168201806040525081019061080691906117e5565b905060018081111561081b5761081a611932565b5b87600181111561082e5761082d611932565b5b03610b10577f000000000000000000000000000000000000000000000000000000000000000073ffffffffffffffffffffffffffffffffffffffff166370a08231306040518263ffffffff1660e01b815260040161088c91906115b6565b602060405180830381865afa1580156108a9573d6000803e3d6000fd5b505050506040513d601f19601f820116820180604052508101906108cd91906117e5565b8111156109ac577f000000000000000000000000000000000000000000000000000000000000000073ffffffffffffffffffffffffffffffffffffffff166370a08231306040518263ffffffff1660e01b815260040161092d91906115b6565b602060405180830381865afa15801561094a573d6000803e3d6000fd5b505050506040513d601f19601f8201168201806040525081019061096e91906117e5565b816040517f8f0f42060000000000000000000000000000000000000000000000000000000081526004016109a3929190611bb7565b60405180910390fd5b7f000000000000000000000000000000000000000000000000000000000000000073ffffffffffffffffffffffffffffffffffffffff1663095ea7b37f0000000000000000000000000000000000000000000000000000000000000000836040518363ffffffff1660e01b8152600401610a27929190611875565b6020604051808303816000875af1158015610a46573d6000803e3d6000fd5b505050506040513d601f19601f82011682018060405250810190610a6a91906118d6565b507f000000000000000000000000000000000000000000000000000000000000000073ffffffffffffffffffffffffffffffffffffffff166396f4e9f98a846040518363ffffffff1660e01b8152600401610ac6929190611b87565b6020604051808303816000875af1158015610ae5573d6000803e3d6000fd5b505050506040513d601f19601f82011682018060405250810190610b099190611c0c565b9350610bf5565b47811115610b53576040517f08c379a0000000000000000000000000000000000000000000000000000000008152600401610b4a90611c96565b60405180910390fd5b7f000000000000000000000000000000000000000000000000000000000000000073ffffffffffffffffffffffffffffffffffffffff166396f4e9f9828b856040518463ffffffff1660e01b8152600401610baf929190611b87565b60206040518083038185885af1158015610bcd573d6000803e3d6000fd5b50505050506040513d601f19601f82011682018060405250810190610bf29190611c0c565b93505b8867ffffffffffffffff16847f6b6da56b1307373f9bd6679da1d5b7f08ce714f80bc3b92807d23fd9064917f88a7f0000000000000000000000000000000000000000000000000000000000000000858b8b604051610c58959493929190611cb6565b60405180910390a350505095945050505050565b600160009054906101000a900473ffffffffffffffffffffffffffffffffffffffff1673ffffffffffffffffffffffffffffffffffffffff163373ffffffffffffffffffffffffffffffffffffffff1614610cfc576040517f08c379a0000000000000000000000000000000000000000000000000000000008152600401610cf390611d55565b60405180910390fd5b60008060009054906101000a900473ffffffffffffffffffffffffffffffffffffffff169050336000806101000a81548173ffffffffffffffffffffffffffffffffffffffff021916908373ffffffffffffffffffffffffffffffffffffffff1602179055506000600160006101000a81548173ffffffffffffffffffffffffffffffffffffffff021916908373ffffffffffffffffffffffffffffffffffffffff1602179055503373ffffffffffffffffffffffffffffffffffffffff168173ffffffffffffffffffffffffffffffffffffffff167f8be0079c531659141344cd1fd0a4f28419497f9722a3daafe3b4186f6b6457e060405160405180910390a350565b60008060009054906101000a900473ffffffffffffffffffffffffffffffffffffffff16905090565b610e32611389565b610e3a6112bc565b60007f000000000000000000000000000000000000000000000000000000000000000073ffffffffffffffffffffffffffffffffffffffff166370a08231306040518263ffffffff1660e01b8152600401610e9591906115b6565b602060405180830381865afa158015610eb2573d6000803e3d6000fd5b505050506040513d601f19601f82011682018060405250810190610ed691906117e5565b1015610f0e576040517f800919b600000000000000000000000000000000000000000000000000000000815260040160405180910390fd5b7f000000000000000000000000000000000000000000000000000000000000000073ffffffffffffffffffffffffffffffffffffffff1663a9059cbb610f52610e01565b836040518363ffffffff1660e01b8152600401610f70929190611875565b6020604051808303816000875af1158015610f8f573d6000803e3d6000fd5b505050506040513d601f19601f82011682018060405250810190610fb391906118d6565b5080610fbd610e01565b73ffffffffffffffffffffffffffffffffffffffff167f7f36cb738e7e0427042dc19669b1186fd858a03b8e699e089a4306ab78a160cb60405160405180910390a3611007611300565b50565b60007f000000000000000000000000000000000000000000000000000000000000000073ffffffffffffffffffffffffffffffffffffffff166370a08231306040518263ffffffff1660e01b815260040161106591906115b6565b602060405180830381865afa158015611082573d6000803e3d6000fd5b505050506040513d601f19601f820116820180604052508101906110a691906117e5565b905090565b6000600360008373ffffffffffffffffffffffffffffffffffffffff1673ffffffffffffffffffffffffffffffffffffffff168152602001908152602001600020549050919050565b600081101561112f576040517fee1786ed00000000000000000000000000000000000000000000000000000000815260040160405180910390fd5b60007f000000000000000000000000000000000000000000000000000000000000000073ffffffffffffffffffffffffffffffffffffffff166323b872dd3330856040518463ffffffff1660e01b815260040161118e93929190611d75565b6020604051808303816000875af11580156111ad573d6000803e3d6000fd5b505050506040513d601f19601f820116820180604052508101906111d191906118d6565b90508061120a576040517fee347f2b00000000000000000000000000000000000000000000000000000000815260040160405180910390fd5b81600360003373ffffffffffffffffffffffffffffffffffffffff1673ffffffffffffffffffffffffffffffffffffffff16815260200190815260200160002060008282546112599190611dac565b92505081905550813373ffffffffffffffffffffffffffffffffffffffff167f2ab7a92c503a6812fe37c729fa2e52da8886704cd6e8d5eee0a014c5e267301260405160405180910390a35050565b6112b0611389565b6112b981611419565b50565b60028054036112f7576040517f3ee5aeb500000000000000000000000000000000000000000000000000000000815260040160405180910390fd5b60028081905550565b6001600281905550565b60606397a657c960e01b826040516024016113259190611e1e565b604051602081830303815290604052907bffffffffffffffffffffffffffffffffffffffffffffffffffffffff19166020820180517bffffffffffffffffffffffffffffffffffffffffffffffffffffffff83818316178352505050509050919050565b60008054906101000a900473ffffffffffffffffffffffffffffffffffffffff1673ffffffffffffffffffffffffffffffffffffffff163373ffffffffffffffffffffffffffffffffffffffff1614611417576040517f08c379a000000000000000000000000000000000000000000000000000000000815260040161140e90611e85565b60405180910390fd5b565b3373ffffffffffffffffffffffffffffffffffffffff168173ffffffffffffffffffffffffffffffffffffffff1603611487576040517f08c379a000000000000000000000000000000000000000000000000000000000815260040161147e90611ef1565b60405180910390fd5b80600160006101000a81548173ffffffffffffffffffffffffffffffffffffffff021916908373ffffffffffffffffffffffffffffffffffffffff1602179055508073ffffffffffffffffffffffffffffffffffffffff1660008054906101000a900473ffffffffffffffffffffffffffffffffffffffff1673ffffffffffffffffffffffffffffffffffffffff167fed8889f560326eb138920d842192f0eb3dd22b4f139c87a2c57538e05bae127860405160405180910390a350565b6040518060400160405280600073ffffffffffffffffffffffffffffffffffffffff168152602001600081525090565b600073ffffffffffffffffffffffffffffffffffffffff82169050919050565b60006115a082611575565b9050919050565b6115b081611595565b82525050565b60006020820190506115cb60008301846115a7565b92915050565b600080fd5b6000819050919050565b6115e9816115d6565b81146115f457600080fd5b50565b600081359050611606816115e0565b92915050565b600060208284031215611622576116216115d1565b5b6000611630848285016115f7565b91505092915050565b600067ffffffffffffffff82169050919050565b61165681611639565b811461166157600080fd5b50565b6000813590506116738161164d565b92915050565b61168281611595565b811461168d57600080fd5b50565b60008135905061169f81611679565b92915050565b600281106116b257600080fd5b50565b6000813590506116c4816116a5565b92915050565b600080600080600060a086880312156116e6576116e56115d1565b5b60006116f488828901611664565b955050602061170588828901611690565b9450506040611716888289016116b5565b935050606061172788828901611690565b9250506080611738888289016115f7565b9150509295509295909350565b6000819050919050565b61175881611745565b82525050565b6000602082019050611773600083018461174f565b92915050565b611782816115d6565b82525050565b600060208201905061179d6000830184611779565b92915050565b6000602082840312156117b9576117b86115d1565b5b60006117c784828501611690565b91505092915050565b6000815190506117df816115e0565b92915050565b6000602082840312156117fb576117fa6115d1565b5b6000611809848285016117d0565b91505092915050565b7f4e487b7100000000000000000000000000000000000000000000000000000000600052601160045260246000fd5b600061184c826115d6565b9150611857836115d6565b925082820390508181111561186f5761186e611812565b5b92915050565b600060408201905061188a60008301856115a7565b6118976020830184611779565b9392505050565b60008115159050919050565b6118b38161189e565b81146118be57600080fd5b50565b6000815190506118d0816118aa565b92915050565b6000602082840312156118ec576118eb6115d1565b5b60006118fa848285016118c1565b91505092915050565b7f4e487b7100000000000000000000000000000000000000000000000000000000600052604160045260246000fd5b7f4e487b7100000000000000000000000000000000000000000000000000000000600052602160045260246000fd5b61196a81611639565b82525050565b600081519050919050565b600082825260208201905092915050565b60005b838110156119aa57808201518184015260208101905061198f565b60008484015250505050565b6000601f19601f8301169050919050565b60006119d282611970565b6119dc818561197b565b93506119ec81856020860161198c565b6119f5816119b6565b840191505092915050565b600081519050919050565b600082825260208201905092915050565b6000819050602082019050919050565b611a3581611595565b82525050565b611a44816115d6565b82525050565b604082016000820151611a606000850182611a2c565b506020820151611a736020850182611a3b565b50505050565b6000611a858383611a4a565b60408301905092915050565b6000602082019050919050565b6000611aa982611a00565b611ab38185611a0b565b9350611abe83611a1c565b8060005b83811015611aef578151611ad68882611a79565b9750611ae183611a91565b925050600181019050611ac2565b5085935050505092915050565b600060a0830160008301518482036000860152611b1982826119c7565b91505060208301518482036020860152611b3382826119c7565b91505060408301518482036040860152611b4d8282611a9e565b9150506060830151611b626060860182611a2c565b5060808301518482036080860152611b7a82826119c7565b9150508091505092915050565b6000604082019050611b9c6000830185611961565b8181036020830152611bae8184611afc565b90509392505050565b6000604082019050611bcc6000830185611779565b611bd96020830184611779565b9392505050565b611be981611745565b8114611bf457600080fd5b50565b600081519050611c0681611be0565b92915050565b600060208284031215611c2257611c216115d1565b5b6000611c3084828501611bf7565b91505092915050565b600082825260208201905092915050565b7f62616c616e6365206973206e6f7420656e6f7567680000000000000000000000600082015250565b6000611c80601583611c39565b9150611c8b82611c4a565b602082019050919050565b60006020820190508181036000830152611caf81611c73565b9050919050565b600060a082019050611ccb60008301886115a7565b611cd860208301876115a7565b611ce56040830186611779565b611cf260608301856115a7565b611cff6080830184611779565b9695505050505050565b7f4d7573742062652070726f706f736564206f776e657200000000000000000000600082015250565b6000611d3f601683611c39565b9150611d4a82611d09565b602082019050919050565b60006020820190508181036000830152611d6e81611d32565b9050919050565b6000606082019050611d8a60008301866115a7565b611d9760208301856115a7565b611da46040830184611779565b949350505050565b6000611db7826115d6565b9150611dc2836115d6565b9250828201905080821115611dda57611dd9611812565b5b92915050565b611de98161189e565b82525050565b604082016000820151611e056000850182611a3b565b506020820151611e186020850182611de0565b50505050565b6000604082019050611e336000830184611def565b92915050565b7f4f6e6c792063616c6c61626c65206279206f776e657200000000000000000000600082015250565b6000611e6f601683611c39565b9150611e7a82611e39565b602082019050919050565b60006020820190508181036000830152611e9e81611e62565b9050919050565b7f43616e6e6f74207472616e7366657220746f2073656c66000000000000000000600082015250565b6000611edb601783611c39565b9150611ee682611ea5565b602082019050919050565b60006020820190508181036000830152611f0a81611ece565b905091905056fea264697066735822122049116e6f3e0aed8d280e7df2ab11e41f5d6f82dfc2cb80ab07becf33a587d0ce64736f6c63430008140033",
  "linkReferences": {},
  "deployedLinkReferences": {}
}